:020000040800F2
:100000000000022045130008090400080B04000842
:100010000D0400080F04000811040008000000008F
:1000200000000000000000000000000013040008B1
:100030001504000800000000170400081904000857
:1000400095130008951300089513000895130008F0
:1000500095130008951300089513000895130008E0
:1000600095130008951300089513000895130008D0
:1000700095130008951300089513000895130008C0
:1000800095130008951300089513000895130008B0
:1000900095130008951300089513000895130008A0
:1000A0009513000895130008951300089513000890
:1000B0009513000895130008951300089513000880
:1000C0009513000895130008951300089513000870
:1000D0009513000895130008951300089513000860
:1000E0009513000895130008951300089513000850
:1000F0009513000895130008951300089513000840
:10010000951300089513000895130008951300082F
:10011000951300089513000895130008951300081F
:10012000951300089513000895130008951300080F
:10013000951300080000000000000000951300085F
:1001400095130008951300089513000895130008EF
:1001500095130008951300089513000895130008DF
:1001600095130008951300089513000895130008CF
:10017000951300089513000895130008000000006F
:1001800000000000951300080000000000000000BF
:1001900095130008000000000000000095130008FF
:1001A000000000000000000000000000951300089F
:1001B000951300089513000895130008951300087F
:0401C000951300088B
:1001C40053B94AB9002908BF00281CBF4FF0FF31BA
:1001D4004FF0FF3000F00CB8ADF1080C6DE904CE1F
:1001E40001F004F9DDF804E0DDE9022304B070470E
:1001F400704700BF10B5054C227832B9044B13B1D7
:100204000448AFF300800123237010BD0C000020CC
:10021400000000009C16000808B5034B1BB10349FD
:100224000348AFF3008008BD000000001000002068
:100234009C16000830B58BB00024059406940794EE
:10024400089409940194224B1A6B42F004021A6335
:100254001A6B02F004020192019A02941A6B42F0A2
:1002640080021A631A6B02F080020292029A0394CB
:100274001A6B42F001021A631A6B02F00102039234
:10028400039A04941A6B42F002021A631B6B03F084
:1002940002030493049B0F4D22462021284600F0BC
:1002A4002FFF4FF4005305930B4B0693079405A9B6
:1002B4000A4800F045FE2023059301230693079482
:1002C400089405A9284600F03BFE0BB030BD00BFE2
:1002D40000380240000002400000211000080240E3
:1002E400FEE7000008B50A480A4B03604FF4E13307
:1002F400436000238360C36003610C224261836115
:10030400C36100F009FA00B908BDFFF7E9FF00BFB7
:10031400280000200044004000B595B0342200219C
:1003240007A801F05BF80023029303930493059359
:1003340006930093224A116C41F080511164126CAF
:1003440002F080520092009A01931E4A116841F40F
:1003540040411160126802F440420192019A022263
:10036400079201210A9110210B910D920E930823FB
:100374000F93B423109311921292139207A800F0D2
:10038400FBFBB0B900F0CCFEA8B90F230293022303
:100394000393002304934FF4A05305934FF4805325
:1003A4000693052102A800F055FA30B915B05DF89E
:1003B40004FBFFF795FFFFF793FFFFF791FF00BFE3
:1003C400003802400070004008B500F06BFFFFF7F2
:1003D400A3FFFFF72FFFFFF785FF0A230622064935
:1003E400064800F0C8F92021054800F08FFE4FF4BC
:1003F400FA7000F083FFF6E7B41600082800002026
:10040400000002407047FEE7FEE7FEE7FEE77047A4
:100414007047704708B500F05FFF08BD82B0002147
:1004240000910B4B5A6C42F480425A645A6C02F4A9
:1004340080420092009A01911A6C42F080521A6430
:100444001B6C03F080530193019B02B0704700BF03
:100454000038024000B589B0002303930493059348
:10046400069307930268164B9A4202D009B05DF8CE
:1004740004FB0021019103F5FA331A6C42F40032B3
:100484001A641A6C02F400320192019A02911A6BF6
:1004940042F001021A631B6B03F001030293029BF7
:1004A4000C2303930223049301230593032306934C
:1004B4000723079303A9034800F042FDD6E700BFD2
:1004C400004400400000024070B50446026813690D
:1004D40023F44053C1680B431361836802691343D7
:1004E40042691343C2691A430168CB6823F4164373
:1004F40023F00C031343CB600268536923F4407365
:1005040081690B435361C369B3F5004F36D0036867
:10051400654A934200F09A8002F58062934200F0AB
:10052400958000F04DFA0026051846EB06012D18BB
:1005340046EB0101CB0043EA5573EA001546194620
:1005440063689A009B0F281846EB0101FFF738FEF9
:10055400564DA5FB00325109642303FB11031B0113
:100564003233A5FB03235B0903F0F00202EB011213
:1005740003F00F03216813448B6093E003684A4A35
:10058400934233D002F5806293422FD000F018FAE0
:100594000026051846EB06012D1846EB0101CB0099
:1005A40043EA5573EA0015461946626833469218C1
:1005B40046EB0303281846EB0101FFF701FE3B4D10
:1005C400A5FB00325109642303FB1103DB00323322
:1005D400A5FB03235B095A0002F4F87202EB011233
:1005E40003F00703216813448B605BE000F0F8F923
:1005F4000026051846EB06012D1846EB0101CB0039
:1006040043EA5573EA001546194662683346921860
:1006140046EB0303281846EB0101FFF7D1FD234DF8
:10062400A5FB00325109642303FB1103DB003233C1
:10063400A5FB03235B095A0002F4F87202EB0112D2
:1006440003F00703216813448B602BE000F0C8F922
:100654000026051846EB06012D1846EB0101CB00D8
:1006640043EA5573EA001546194663689A009B0FDE
:10067400281846EB0101FFF7A3FD0C4DA5FB003242
:100684005109642303FB11031B013233A5FB03232C
:100694005B0903F0F00202EB011203F00F0321687F
:1006A40013448B6070BD00BF001001401F85EB51E7
:1006B4002DE9F84305460F4616469946DDF8208095
:1006C4002C68246837EA04030CBF01240024B442D4
:1006D4001FD1B8F1FF3FF3D0B8F1000F05D000F0FF
:1006E40007FEA0EB09004045EAD92A68D36823F441
:1006F400D073D3602A68536923F001035361202324
:1007040085F8393085F83A30002385F838300320ED
:1007140000E00020BDE8F88358B310B5044690F813
:1007240039300BB3242384F839302268D36823F496
:100734000053D3602046FFF7C7FE2268136923F4F1
:10074400904313612268536923F02A03536122689A
:10075400D36843F40053D3600020E063202384F87B
:10076400393084F83A3010BD80F83830FFF772FE23
:10077400D8E7012070472DE9F04383B01E4690F876
:100784003930DBB2202B57D104460D469046002960
:1007940056D0002A56D090F83830012B54D001237B
:1007A40080F838304FF00009C0F83C90212380F8DD
:1007B400393000F09DFD0746A4F82480A4F8268073
:1007C40084F8389017E000963B46002280212046AA
:1007D400FFF76EFF002839D12B882268C3F3080382
:1007E400536023690BB9023505E0013503E015F8C0
:1007F400012B23685A60E28C92B292B1E28C013AE6
:1008040092B2E284A368B3F5805FDCD000963B46E5
:10081400002280212046FFF74BFF0028E7D0032069
:100824000BE000963B4640212046FFF741FF78B994
:10083400202384F8393000E0022003B0BDE8F083BF
:100844000120FAE70120F8E70220F6E70320F4E7A5
:100854000320F2E7002800F09B8070B50D460446A3
:100864004F4B1B6803F00F038B4208D2CBB24C4AA8
:100874001370136803F00F038B4240F08B802368DE
:1008840013F0020F17D013F0040F04D0454A9368F5
:1008940043F4E0539360236813F0080F04D0414AF3
:1008A400936843F4604393603E4A936823F0F003F3
:1008B400A1680B439360236813F0010F32D063687F
:1008C400012B21D09A1E012A25D9364A126812F02A
:1008D400020F61D033498A6822F0030213438B600C
:1008E40000F006FD06462F4B9B6803F00C0362687C
:1008F400B3EB820F16D000F0FBFC801B41F288336F
:100904009842F0D9032042E0264A126812F4003FCC
:10091400E0D101203BE0234A126812F0007FD9D1D4
:10092400012034E01E4B1B6803F00F03AB4207D9D0
:10093400EAB21B4B1A701B6803F00F03AB422DD1B4
:10094400236813F0040F06D0164A936823F4E05387
:10095400E1680B439360236813F0080F07D0114A32
:10096400936823F46043216943EAC103936000F070
:1009740047F80C4B9B68C3F303130B4AD35CD84072
:100984000A4B18600A4B186800F066FC002070BD22
:10099400012070470120FAE70120F8E70120F6E77B
:1009A400003C024000380240BC1600080800002049
:1009B40004000020014B1868704700BF08000020A5
:1009C40008B5FFF7F7FF044B9B68C3F38223034A80
:1009D400D35CD84008BD00BF00380240CC160008E4
:1009E40008B5FFF7E7FF044B9B68C3F34233034AA0
:1009F400D35CD84008BD00BF00380240CC160008C4
:100A04002DE9F843594B9B6803F00C03082B08D0DD
:100A14000C2B5BD0042B02D05548BDE8F883554815
:100A2400FBE7524B5A6802F03F025B6813F4800FF5
:100A34002BD04E4B5B68C3F3881358010021C01AB6
:100A440061F100018C0144EA90648501B5EB000872
:100A540064EB01094FEAC90141EA58714FEAC80041
:100A6400C01841F100014B0243EAD053440220462E
:100A740019460023FFF7A4FB3C4B5B68C3F3014317
:100A840001335B00B0FBF3F0C7E7384B5B68C3F39B
:100A9400881358010021C01A61F100018C0144EA55
:100AA400906485012E1A64EB0107F90041EA56713E
:100AB400F000C01841F100018B0243EA9053840214
:100AC400204619460023FFF77BFBD5E7274B5A68DE
:100AD40002F03F025B6813F4800F26D0234B5B685F
:100AE400C3F3881358010021C01A61F100018E017B
:100AF40046EA906687013C1A66EB0105E90041EA83
:100B04005471E000C01841F100014B0243EAD05394
:100B14004402204619460023FFF752FB134B5B683F
:100B2400C3F30273B0FBF3F077E7104B5B68C3F3D6
:100B340088135C010025E41A65F10005AE0146EA5C
:100B44009466A701381B66EB0501CC0044EA507497
:100B5400C500E81844F100018B0243EA9053840273
:100B6400204619460023FFF72BFBD7E70038024045
:100B74000024F40000127A0070B582B004460368C1
:100B840013F0010F41D0A64B9B6803F00C03042B18
:100B940032D0A34B9B6803F00C03082B27D0A04B47
:100BA4009B6803F00C030C2B59D06368B3F5803FAA
:100BB4005BD0B3F5A02F5ED0994B1A6822F4803233
:100BC4001A601A6822F480221A606368002B5CD0D1
:100BD40000F08EFB0546924B1B6813F4003F14D1C2
:100BE40000F086FB401B6428F5D903209FE18C4B61
:100BF4005B6813F4800FD2D0894B1B6813F4003F59
:100C040003D06368002B00F08D81236813F0020F7A
:100C140060D0834B9B6813F00C0F4AD0804B9B68C9
:100C240003F00C03082B3FD07D4B9B6803F00C03AF
:100C34000C2B68D0E368002B74D07A4B01221A6025
:100C440000F056FB0546764B1B6813F0020F60D18B
:100C540000F04EFB401B0228F5D9032067E1704BDE
:100C64005B6813F4800FA0D0C6E76D4A136843F4A1
:100C740080331360A9E76A4B1A6842F480221A6031
:100C84001A6842F480321A609FE700F031FB05468F
:100C9400634B1B6813F4003FB7D000F029FB401BE3
:100CA4006428F5D9032042E15D4B5B6813F4800F9F
:100CB400BAD15B4B1B6813F0020F03D0E368012B1E
:100CC40040F03281564A136823F0F803216943EA5D
:100CD400C1031360236813F0080F47D06369002B26
:100CE40032D0514B01221A6000F002FB05464C4BF6
:100CF4005B6F13F0020F39D100F0FAFA401B02289F
:100D0400F5D9032013E1464B5B6813F4800F91D1AE
:100D1400CFE7434A136823F0F803216943EAC10388
:100D24001360D7E73F4B00221A6000F0E1FA054652
:100D34003B4B1B6813F0020FCCD000F0D9FA401BD8
:100D44000228F5D90320F2E0374B00221A6000F0A4
:100D5400CFFA0546324B5B6F13F0020F06D000F05A
:100D6400C7FA401B0228F5D90320E0E0236813F0FA
:100D7400040F79D02A4B1B6C13F0805F0DD1002334
:100D84000193274B1A6C42F080521A641B6C03F0D7
:100D940080530193019B012500E00025234B1B6830
:100DA40013F4807F21D0A368012B32D0052B3FD0D0
:100DB4001B4B1A6F22F001021A671A6F22F0040209
:100DC4001A67A368002B3DD000F092FA0646144B34
:100DD4001B6F13F0020F46D100F08AFA801B41F218
:100DE40088339842F3D90320A1E0104A136843F4EE
:100DF4008073136000F07CFA06460C4B1B6813F4F6
:100E0400807FD0D100F074FA801B0228F5D903202A
:100E14008DE0034A136F43F001031367D1E700BF6A
:100E24000038024000004742800E474200700040F4
:100E3400414B1A6F42F004021A671A6F42F0010222
:100E44001A67BEE700F054FA06463B4B1B6F13F0DB
:100E5400020F08D000F04CFA801B41F2883398420C
:100E6400F3D9032063E0E5B9A369002B5ED0324ACD
:100E7400926802F00C02082A5BD0022B17D02F4B89
:100E840000221A6000F034FA04462B4B1B6813F05E
:100E9400007F45D000F02CFA001B0228F5D903206E
:100EA40045E0254A136C23F080531364DCE7234B9D
:100EB40000221A6000F01CFA05461F4B1B6813F051
:100EC400007F06D000F014FA401B0228F5D9032055
:100ED4002DE0E369226A1343626A43EA8213A26A39
:100EE4005208013A43EA0243E26A43EA0263226B8C
:100EF40043EA0273104A5360104B01221A6000F057
:100F0400F7F904460C4B1B6813F0007F06D100F080
:100F1400EFF9001B0228F5D9032008E0002006E0C1
:100F2400002004E0012002E0012000E0002002B0E3
:100F340070BD0120FBE700BF00380240600047425B
:100F440000230F2B00F2D380F0B583B039E00622E2
:100F540000E00022B2403A430234654E46F82420B1
:100F6400644A1468EA4324EA05064F6817F4803F8C
:100F740001D045EA04065F4C2660646802EA040670
:100F84004F6817F4003F01D045EA0406594C6660E7
:100F9400A46802EA04064F6817F4801F01D045EAEA
:100FA4000406544CA660E46822404E6816F4001F00
:100FB40001D045EA04024F4CE26001330F2B00F2EA
:100FC400948001229A400C6804EA020532EA04047F
:100FD400F3D14C68661E012E03D9112C01D0122CBA
:100FE40012D186685F000324BC4026EA0406CC685C
:100FF400BC4034438460466826EA02064C68C4F365
:1010040000129A4032434260C7685E000324B44031
:10101400E24327EA04078C68B4403C43C4604C684C
:10102400022C01D0122C13D1DF08083750F827E026
:1010340003F007044FEA840C0F2404FA0CF42EEA9C
:10104400040E0C6904FA0CF444EA0E0440F8274038
:10105400046814404A6802F00302B240224302606A
:101064004A6812F0805FA8D000220192224A546C90
:1010740044F480445464526C02F480420192019A14
:101084009C08A61C1A4A52F8267003F00302960024
:101094000F22B24027EA0207184A90423FF459AFA0
:1010A40002F58062904216D002F58062904214D01C
:1010B40002F58062904212D002F58062904210D014
:1010C40002F5806290420ED002F5806290423FF4B5
:1010D4003EAF07223EE701223CE702223AE7032221
:1010E40038E7042236E7052234E703B0F0BD704741
:1010F40000380140003C014000380240000002403A
:101104000AB181617047090481617047436931EA1A
:10111400030301D0816170470904816170470000B5
:1011240010B582B000230193194B1A6C42F080521F
:101134001A641B6C03F080530193019B154B01222D
:101144001A6000F0D5F80446134B5B6813F4803F33
:1011540008D100F0CDF8001BB0F57A7FF4D9032054
:1011640002B010BD0D4B01221A6000F0C1F8044614
:10117400094B5B6813F4003F07D100F0B9F8001B7A
:10118400B0F57A7FF4D90320EAE70020E8E700BF4E
:101194000038024040000E420070004044000E42FD
:1011A400074AD36823F4E0631B041B0C000200F419
:1011B400E060034343F0BF6343F40033D3607047FC
:1011C40000ED00E030B4174BDB68C3F30223C3F136
:1011D4000704042C28BF04241D1D062D18D9033B25
:1011E4004FF0FF3505FA04F421EA0401994005FAA9
:1011F40003F322EA0303194300280BDB0901C9B2F4
:1012040000F1604000F5614080F8001330BC704785
:101214000023E5E700F00F000901C9B2024B19549D
:10122400F4E700BF00ED00E014ED00E00138B0F198
:10123400807F0AD2064B5860064AF02182F82310B8
:101244000020986007221A6070470120704700BF91
:1012540010E000E000ED00E010B504460E4B1878F5
:101264004FF47A73B3FBF0F30C4A1068B0FBF3F05D
:10127400FFF7DCFF68B90F2C01D901200AE0002236
:1012840021464FF0FF30FFF79DFF054B1C60002007
:1012940000E0012010BD00BF000000200800002075
:1012A4000400002008B50B4B1A6842F400721A605F
:1012B4001A6842F480621A601A6842F480721A60F2
:1012C4000320FFF76DFF0020FFF7C6FFFFF7A6F826
:1012D400002008BD003C0240034A1168034B1B7800
:1012E4000B441360704700BF68000020000000201A
:1012F400014B1868704700BF6800002038B50446E9
:10130400FFF7F6FF0546B4F1FF3F02D0044B1B780C
:101314001C44FFF7EDFF401BA042FAD338BD00BFC9
:1013240000000020054BD3F8882042F47002C3F873
:1013340088204FF000629A60704700BF00ED00E023
:10134400DFF834D0002103E00C4B5B5843500431E8
:101354000B480C4B42189A42F6D30B4A02E0002386
:1013640042F8043B094B9A42F9D3FFF7DBFF00F044
:1013740011F8FFF729F8704700000220E41600086E
:10138400000000200C0000200C0000206C00002055
:10139400FEE7000070B50D4D0D4C641BA410002633
:1013A400A64209D10B4D0C4C00F076F9641BA41035
:1013B4000026A64205D170BD55F8043B9847013676
:1013C400EEE755F8043B98470136F2E7DC160008CF
:1013D400DC160008DC160008E01600080244034688
:1013E400934200D1704703F8011BF9E72DE9F04F50
:1013F400099E8A468E46154604461946002B40F03F
:10140400CA805245B2FA82F747D94FB1C7F12008D2
:101414000AFA07F320FA08F8BD4048EA030EBC4074
:101424004FEA15491FFA85F8BEFBF9FB220C09FBAC
:101434001BE30BFB08FC42EA034AD44529D915EB0C
:101444000A0A0BF1FF3004D2D44502D9ABF10200F1
:10145400AA44AAEB0C0AA4B2BAFBF9F309FB13AA37
:1014640003FB08F844EA0A44A04514D92C1903F1F3
:10147400FF3203D2A04501D99A1E2C44A4EB0804E0
:1014840042EA00401EB1FC40002334607360BDE8B2
:10149400F08F5846DDE71A46F0E702B9FFDE9FBB3E
:1014A400AAEB020301214FEA154CAAB2B3FBFCFEDE
:1014B400200C0CFB1E330EFB02F840EA0343984554
:1014C40065D9EB180EF1FF3004D2984502D9AEF17C
:1014D40002002B44A3EB0803A4B2B3FBFCFE0CFBF9
:1014E4001E330EFB02F244EA0344A24251D92C19E2
:1014F4000EF1FF3304D2A24202D9AEF102032C440E
:10150400A41A43EA0040BDE7C7F120082AFA08F903
:10151400BD4020FA08F80AFA07F348EA03024FEA42
:10152400154CABB2B9FBFCFE110C0CFB1E900EFB70
:1015340003F841EA0040804504FA07F423D9281847
:101544000EF1FF3104D2804502D9AEF102012844E4
:10155400A0EB080092B2B0FBFCFE0CFB1E000EFBDD
:1015640003F842EA004398450FD9EB180EF1FF3215
:1015740004D2984502D9AEF102022B44A3EB08032E
:1015840042EA01418FE77146E2E77246F6E77046A8
:10159400A0E77346B4E7534505D90EB1C6E9000A7E
:1015A4000021084673E7B3FA83F8B8F1000F10D1AD
:1015B400534501D382420AD8841A6AEB03030120FB
:1015C4009E46002E65D0C6E9004E00215FE74046E6
:1015D400F7E7C8F1200903FA08F322FA09F71F43D1
:1015E40020FA09F40AFA08F32AFA09F51C434FEA27
:1015F400174A02FA08FC00FA08FEB5FBFAF2BBB27D
:101604000AFB1250250C02FB03F145EA0045A942EE
:101614003BD97D1902F1FF3003D2A94201D9901EB2
:101624003D446D1AA4B2B5FBFAF20AFB12555343BA
:1016340044EA05418B422AD9791802F1FF3403D2D6
:101644008B4201D9941E394444EA0040A0FB0C4566
:10165400C91AA94223462A4602D306D1A64504D272
:10166400B4EB0C0365EB0702013896B1BEEB03043F
:1016740061EB020E0EFA09F924FA08F349EA0303AE
:101684002EFA08F1C6E900319FE71046C9E714466F
:10169400DAE73146FBE60000F8B500BFF8BC08BC49
:1016A4009E467047F8B500BFF8BC08BC9E4670471C
:1016B40048656C6C6F0A0000000000000000000028
:1016C40001020304060708090000000001020304E4
:0816D4001CFDFF7F0100000076
:0416DC001D020008E3
:0416E000F901000804
:0C16E40001000000100000000024F400D1
:040000050800134597
:00000001FF
