:020000040800F2
:1000000000000820510D0008750300087703000860
:10001000790300087B0300087D030008000000004E
:100020000000000000000000000000007F03000846
:100030008103000800000000830300088503000816
:10004000A10D0008A10D0008A10D0008A10D0008D8
:10005000A10D0008A10D0008A10D0008A10D0008C8
:10006000A10D0008A10D0008A10D0008A10D0008B8
:10007000A10D0008A10D0008A10D0008A10D0008A8
:10008000A10D0008A10D0008A10D0008A10D000898
:10009000A10D0008A10D0008A10D0008A10D000888
:1000A000A10D0008A10D0008A10D0008A10D000878
:1000B000A10D0008A10D0008A10D0008A10D000868
:1000C000A10D0008A10D0008A10D0008A10D000858
:1000D000A10D0008A10D0008A10D0008A10D000848
:1000E000A10D0008A10D0008A10D0008A10D000838
:1000F000A10D0008A10D0008A10D0008A10D000828
:10010000A10D0008A10D0008A10D0008A10D000817
:10011000A10D0008A10D0008A10D0008A10D000807
:10012000A10D0008A10D0008A10D0008A10D0008F7
:10013000A10D0008A10D0008A10D0008A10D0008E7
:10014000A10D0008A10D0008A10D0008A10D0008D7
:10015000A10D0008A10D0008A10D0008A10D0008C7
:10016000A10D0008A10D0008A10D0008A10D0008B7
:10017000A10D0008A10D0008A10D0008000000005D
:10018000A10D0008A10D0008A10D0008A10D000897
:10019000A10D0008A10D0008A10D0008A10D000887
:1001A000A10D0008A10D0008A10D0008A10D000877
:1001B000A10D0008A10D0008A10D0008A10D000867
:1001C000A10D0008A10D0008A10D0008A10D000857
:1001D000A10D0008A10D0008A10D0008A10D000847
:1001E000A10D0008A10D0008A10D0008A10D000837
:0801F000A10D0008A10D00089B
:1001F80053B94AB9002908BF00281CBF4FF0FF3186
:100208004FF0FF3000F00CB8ADF1080C6DE904CEEA
:1002180000F0F0FDDDF804E0DDE9022304B07047EA
:10022800704700BF10B5054C237833B9044B13B1A0
:100238000448AFF300800123237010BD0C00002098
:1002480000000000A810000808B5034B1BB10349C3
:100258000348AFF3008008BD000000001000002034
:10026800A810000830B589B00024039404940594BC
:1002780006940794134B1A6B42F080021A631A6BA8
:1002880002F080020192019A1A6B42F400721A631A
:100298001B6B03F400730293029B0B4D22464FF431
:1002A8000041284600F0C0FC4FF4004303930123AB
:1002B80004930594069403A9284600F0C5FB09B0E9
:1002C80030BD00BF003802400024024010B594B091
:1002D8003422002107A800F085FD0024029403942D
:1002E800049405940694164B1A6C42F080521A64D2
:1002F8001B6C03F080530093009B124A136823F48D
:10030800404343F480431360136803F4404301936C
:10031800019B0223079301230A9310230B930D9447
:1003280007A800F0A3F80F230293039404940594FC
:100338000694214602A800F0D5FA14B010BD00BFFB
:10034800003802400070004008B500F0A3FCFFF739
:10035800BDFFFFF787FF4FF40041034800F06AFC38
:10036800642000F0B5FCF6E7002402407047FEE781
:10037800FEE7FEE7FEE770477047704708B500F0F4
:1003880095FC08BD82B00A4B1A6C42F080521A6480
:100398001A6C02F080520092009A5A6C42F4804221
:1003A8005A645B6C03F480430193019B02B070476D
:1003B800003802400649CB6823F4E0631B041B0C99
:1003C800000200F4E0600343024A1A43CA6070471F
:1003D80000ED00E00000FA0500B5174BDB68C3F339
:1003E8000223C3F1070CBCF1040F28BF4FF0040C23
:1003F80003F1040EBEF1060F14D9033B4FF0FF3E84
:100408000EFA0CFC21EA0C0199400EFA03F322EAD9
:1004180003031943002807DB0901C9B2074B195424
:100428005DF804FB0023E9E700F00F000901C9B2F9
:10043800034B1954F4E700BF00ED00E000E400E0CE
:1004480014ED00E00138B0F1807F0BD24FF0E023CB
:100458005861054AF02182F823100020986107228C
:100468001A6170470120704700ED00E0002800F095
:10047800DA8170B582B00446036813F0010F29D001
:10048800954B9B6803F00C03042B1AD0924B9B6886
:1004980003F00C03082B0FD06368B3F5803F40D0FE
:1004A800002B54D18C4B1A6822F480321A601A68D7
:1004B80022F480221A6039E0874B5B6813F4800FBE
:1004C800EAD0854B1B6813F4003F03D06368002B08
:1004D80000F0AB81236813F0020F74D07E4B9B6849
:1004E80013F00C0F5ED07C4B9B6803F00C03082BB9
:1004F80053D0E368002B00F08980774A136843F0F3
:100508000103136000F0DEFB0546734B1B6813F014
:10051800020F72D100F0D6FB401B0228F5D9032048
:1005280088E16D4A136843F48033136063682BB322
:1005380000F0C8FB0546684B1B6813F4003FC9D19F
:1005480000F0C0FB401B6428F5D9032072E1B3F525
:10055800A02F09D0604B1A6822F480321A601A68FA
:1005680022F480221A60E1E75B4B1A6842F4802289
:100578001A601A6842F480321A60D7E700F0A2FBCA
:100588000546554B1B6813F4003FA3D000F09AFBB7
:10059800401B6428F5D903204CE14F4B5B6813F4EA
:1005A800800FA6D14C4B1B6813F0020F03D0E368F1
:1005B800012B40F03C81484A136823F0F803216975
:1005C80043EAC1031360236813F0080F46D0636938
:1005D80083B3414A536F43F00103536700F072FB42
:1005E80005463D4B5B6F13F0020F37D100F06AFBF5
:1005F800401B0228F5D903201CE1374A136823F071
:10060800F803216943EAC1031360DCE7324A13683F
:1006180023F00103136000F055FB05462E4B1B68C1
:1006280013F0020FCFD000F04DFB401B0228F5D984
:100638000320FFE0284A536F23F00103536700F0BB
:1006480041FB0546244B5B6F13F0020F06D000F008
:1006580039FB401B0228F5D90320EBE0236813F08F
:10066800040F7DD01C4B1B6C13F0805F1ED11A4BFE
:100678001A6C42F080521A641B6C03F08053019389
:10068800019B0125154B1B6813F4807F10D0A368CC
:10069800012B25D0002B3BD10F4B1A6F22F0010202
:1006A8001A671A6F22F004021A671EE00025E9E7AC
:1006B8000A4A136843F48073136000F003FB06468C
:1006C800064B1B6813F4807FE1D100F0FBFA801B16
:1006D8006428F5D90320ADE00038024000700040DE
:1006E800564A136F43F001031367A36833B300F04E
:1006F800E9FA0646514B1B6F13F0020F2FD100F099
:10070800E1FA801B41F288339842F3D9032091E043
:10071800052B09D0494B1A6F22F001021A671A6F8C
:1007280022F004021A67E0E7444B1A6F42F0040211
:100738001A671A6F42F001021A67D6E700F0C2FA88
:1007480006463E4B1B6F13F0020F08D000F0BAFAB2
:10075800801B41F288339842F3D903206AE0F5B947
:10076800A369002B65D0354A926802F00C02082A6A
:1007780062D0022B19D0314A136823F080731360BA
:1007880000F0A0FA04462D4B1B6813F0007F48D0F8
:1007980000F098FA001B0228F5D903204AE0274AFE
:1007A800136C23F080531364DAE7244A136823F0A8
:1007B8008073136000F086FA0546204B1B6813F01F
:1007C800007F06D000F07EFA401B0228F5D90320EE
:1007D80030E0E369226A1343626A43EA8213A26A39
:1007E8005208013A43EA0243E26A43EA0263226B8F
:1007F80043EA0273114A5360136843F0807313602D
:1008080000F060FA04460D4B1B6813F0007F06D118
:1008180000F058FA001B0228F5D903200AE000204E
:1008280008E0002006E001207047012002E00120D6
:1008380000E0002002B070BD0120FBE70038024054
:1008480008B5254B9B6803F00C03042B3FD0082BFD
:100858003FD1214B5A6802F03F025B6813F4800FC6
:1008680012D01D4B5968C1F388111C480023A1FB05
:100878000001FFF7BDFC184B5B68C3F3014301336C
:100888005B00B0FBF3F025E0134B5968C1F3881CFB
:100898004FEA4C11B1EB0C006EEB0E0E4FEA8E13C3
:1008A80043EA90638101091A63EB0E03DB0043EA14
:1008B8005173C90011EB0C0C43F10003990200239A
:1008C8004FEA8C2041EA9C51FFF792FCD3E703489A
:1008D80000E0034808BD00BF0038024040787D01B1
:1008E8000024F400002800F09F8070B50D460446EF
:1008F800514B1B6803F00F038B420BD24E4A13680F
:1009080023F00F030B431360136803F00F038B42AC
:1009180040F08C80236813F0020F17D013F0040FF7
:1009280004D0464A936843F4E0539360236813F075
:10093800080F04D0414A936843F4604393603F4AE8
:10094800936823F0F003A1680B439360236813F0C6
:10095800010F31D06368012B20D0022B25D0374AF4
:10096800126812F0020F63D034498A6822F0030239
:1009780013438B6000F0A6F90646304B9B6803F0E2
:100988000C036268B3EB820F16D000F09BF9801B52
:1009980041F288339842F0D9032044E0274A12688C
:1009A80012F4003FE0D101203DE0244A126812F021
:1009B800007FD9D1012036E01F4B1B6803F00F03DD
:1009C800AB420AD91C4A136823F00F032B43136068
:1009D800136803F00F03AB422CD1236813F0040F04
:1009E80006D0164A936823F4E053E1680B439360FA
:1009F800236813F0080F07D0104A936823F4604364
:100A0800216943EAC1039360FFF71AFF0B4B9B6808
:100A1800C3F303130A4AD35CD8400A4B186000207A
:100A280000F012F9002070BD012070470120FAE79C
:100A38000120F8E70120F6E7003C024000380240B8
:100A4800C01000080800002000230F2B00F2E280ED
:100A5800F0B583B03AE0092200E00022AA40324310
:100A680002346D4D45F824206C4A14686FEA0C0274
:100A780024EA0C054E6816F4803F01D04CEA0405C0
:100A8800664C2560646802EA04054E6816F4003F67
:100A980001D04CEA0405614C6560A46802EA0405CB
:100AA8004E6816F4801F01D04CEA04055B4CA56023
:100AB800E46822404D6815F4001F01D04CEA040296
:100AC800564CE26001330F2B00F2A28001229A40BB
:100AD8000C6804EA020C32EA0404F3D14C68122CC4
:100AE80018BF022C10D1DD08083550F8257003F026
:100AF8000704A6000F24B44027EA040E0C69B4408A
:100B080044EA0E0440F8254006684FEA430E0324E1
:100B180004FA0EF4E54326EA04064C6804F00304DC
:100B280004FA0EF4344304604C68661E112C18BF96
:100B3800012E01D9122C0FD186682E40CC6804FAF8
:100B48000EF434438460446824EA02024C68C4F317
:100B580000149C4014434460C26815408A6802FA35
:100B68000EF22A43C2604A6812F0805FAAD02C4A6B
:100B7800546C44F480445464526C02F480420192F0
:100B8800019A9C08A51C244A52F8256003F0030228
:100B980095000F22AA4026EA0206224A90423FF414
:100BA8005CAF02F58062904222D002F580629042EA
:100BB80020D002F5806290421ED002F580629042F9
:100BC8001CD002F5806290421AD002F580629042F1
:100BD80018D002F58062904216D002F580629042E9
:100BE80014D002F5806290423FF435AF0A2235E70F
:100BF800012233E7022231E703222FE704222DE7FF
:100C080005222BE7062229E7072227E7082225E7FE
:100C180003B0F0BD704700BF00380140003C014000
:100C280000380240000002400AB18161704709049F
:100C380081617047436931EA030301D081617047DC
:100C4800090481617047000010B504460E4B1878FE
:100C58004FF47A73B3FBF0F30C4A1068B0FBF3F06F
:100C6800FFF7F0FB68B90F2C01D901200AE0002238
:100C780021464FF0FF30FFF7AFFB054B1C6000200B
:100C880000E0012010BD00BF000000200800002087
:100C98000400002008B50320FFF78CFB0020FFF7B5
:100CA800D3FFFFF76FFB002008BD0000034A11685F
:100CB800034B1B780B441360704700BF28000020CB
:100CC80000000020014B1868704700BF2800002072
:100CD80038B50446FFF7F6FF0546B4F1FF3F02D0EA
:100CE800044B1B781C44FFF7EDFF401BA042FAD3CE
:100CF80038BD00BF0000002010B40F4AD2F8883079
:100D080043F47003C2F888300C4B196841F00101B4
:100D18001960002098601C68094921401960094938
:100D28005960196821F480211960D8604FF0006378
:100D380093605DF8044B704700ED00E00038024016
:100D4800FFFFF6FE10300024DFF834D0002103E066
:100D58000C4B5B58435004310B480C4B42189A42D9
:100D6800F6D30B4A02E0002342F8043B094B9A42AF
:100D7800F9D3FFF7C1FF00F011F8FFF7E5FA704764
:100D880000000820E0100008000000200C000020EF
:100D98000C0000202C000020FEE7000070B50D4D6F
:100DA8000D4C641BA4100026A64209D10B4D0C4C17
:100DB80000F076F9641BA4100026A64205D170BD88
:100DC80055F8043B98470136EEE755F8043B984739
:100DD8000136F2E7D8100008D8100008D81000082B
:100DE800DC10000802440346934200D1704703F820
:100DF800011BF9E72DE9F04F099E88468E461546F6
:100E080004461946002B40F0C7804245B2FA82F7E3
:100E180046D94FB1C7F1200C08FA07F320FA0CFCA9
:100E2800BD404CEA030EBC404FEA15481FFA85FC4A
:100E3800BEFBF8F9220C08FB19E309FB0CFA42EA9D
:100E480003439A4528D9EB1809F1FF3004D29A4593
:100E580002D9A9F102002B44A3EB0A03A4B2B3FB05
:100E6800F8F208FB123302FB0CFC44EA0344A445E5
:100E780014D92C1902F1FF3303D2A44501D9931ECA
:100E88002C44A4EB0C0443EA00401EB1FC400023B0
:100E980034607360BDE8F08F4846DDE71346F0E73D
:100EA80002B9FFDE8FBBA8EB020301214FEA154E02
:100EB800AAB2B3FBFEFC200C0EFB1C330CFB02F8A1
:100EC80040EA0343984563D9EB180CF1FF3004D28C
:100ED800984502D9ACF102002B44A3EB0803A4B255
:100EE800B3FBFEFC0EFB1C330CFB02F244EA03448A
:100EF800A2424FD92C190CF1FF3304D2A24202D9D5
:100F0800ACF102032C44A41ABDE7C7F1200C28FA5F
:100F18000CF908FA07F320FA0CFCBD404CEA03026E
:100F28004FEA154EABB2B9FBFEFC110C0EFB1C9040
:100F38000CFB03F841EA0040804504FA07F423D982
:100F480028180CF1FF3104D2804502D9ACF1020116
:100F58002844A0EB080092B2B0FBFEFC0EFB1C007C
:100F68000CFB03F842EA004398450FD9EB180CF143
:100F7800FF3204D2984502D9ACF102022B44A3EB0C
:100F8800080342EA014191E76146E2E76246F6E773
:100F98006046A2E76346B6E7434505D90EB1C6E900
:100FA80000080021084675E7B3FA83FCBCF1000F7E
:100FB80010D1434501D382420AD8841A68EB03034F
:100FC80001209E46002E68D0C6E9004E002161E748
:100FD8006046F7E7CCF1200E03FA0CF322FA0EF480
:100FE8001C4320FA0EF108FA0CF328FA0EFB1943F9
:100FF8004FEA144902FA0CF5BBFBF9F8A3B209FB56
:1010080018BB0A0C08FB03FA42EA0B42924500FAA5
:101018000CF73ED9A21808F1FF3004D2924502D944
:10102800A8F102002244A2EB0A0289B2B2FBF9F845
:1010380009FB182208FB03F341EA024293422AD92A
:10104800A21808F1FF3104D2934202D9A8F1020193
:10105800224441EA0040A0FB0598D21A42454B467B
:10106800414602D306D14F4504D2B9EB050368EBDC
:10107800040101388EB1FC1A62EB010707FA0EFE73
:1010880024FA0CF34EEA030327FA0CF7C6E90037F3
:101098009CE74046C7E74146DBE73146FAE60000F1
:1010A800F8B500BFF8BC08BC9E467047F8B500BF4D
:0810B800F8BC08BC9E4670471D
:1010C00000000000000000000102030406070809F8
:0810D0002CFDFF7F0100000070
:0410D80051020008B9
:0410DC002D020008D9
:0C10E00001000000100000000024F400DB
:0400000508000D5191
:00000001FF
